{
  "_format": "hh-sol-artifact-1",
  "contractName": "EarnToken",
  "sourceName": "contracts/EarnToken.sol",
  "abi": [
    {
      "inputs": [
        {
          "internalType": "string",
          "name": "name",
          "type": "string"
        },
        {
          "internalType": "string",
          "name": "symbol",
          "type": "string"
        }
      ],
      "stateMutability": "nonpayable",
      "type": "constructor"
    },
    {
      "anonymous": false,
      "inputs": [
        {
          "indexed": true,
          "internalType": "address",
          "name": "owner",
          "type": "address"
        },
        {
          "indexed": true,
          "internalType": "address",
          "name": "spender",
          "type": "address"
        },
        {
          "indexed": false,
          "internalType": "uint256",
          "name": "value",
          "type": "uint256"
        }
      ],
      "name": "Approval",
      "type": "event"
    },
    {
      "anonymous": false,
      "inputs": [
        {
          "indexed": true,
          "internalType": "bytes32",
          "name": "role",
          "type": "bytes32"
        },
        {
          "indexed": true,
          "internalType": "bytes32",
          "name": "previousAdminRole",
          "type": "bytes32"
        },
        {
          "indexed": true,
          "internalType": "bytes32",
          "name": "newAdminRole",
          "type": "bytes32"
        }
      ],
      "name": "RoleAdminChanged",
      "type": "event"
    },
    {
      "anonymous": false,
      "inputs": [
        {
          "indexed": true,
          "internalType": "bytes32",
          "name": "role",
          "type": "bytes32"
        },
        {
          "indexed": true,
          "internalType": "address",
          "name": "account",
          "type": "address"
        },
        {
          "indexed": true,
          "internalType": "address",
          "name": "sender",
          "type": "address"
        }
      ],
      "name": "RoleGranted",
      "type": "event"
    },
    {
      "anonymous": false,
      "inputs": [
        {
          "indexed": true,
          "internalType": "bytes32",
          "name": "role",
          "type": "bytes32"
        },
        {
          "indexed": true,
          "internalType": "address",
          "name": "account",
          "type": "address"
        },
        {
          "indexed": true,
          "internalType": "address",
          "name": "sender",
          "type": "address"
        }
      ],
      "name": "RoleRevoked",
      "type": "event"
    },
    {
      "anonymous": false,
      "inputs": [
        {
          "indexed": true,
          "internalType": "address",
          "name": "from",
          "type": "address"
        },
        {
          "indexed": true,
          "internalType": "address",
          "name": "to",
          "type": "address"
        },
        {
          "indexed": false,
          "internalType": "uint256",
          "name": "value",
          "type": "uint256"
        }
      ],
      "name": "Transfer",
      "type": "event"
    },
    {
      "inputs": [],
      "name": "DEFAULT_ADMIN_ROLE",
      "outputs": [
        {
          "internalType": "bytes32",
          "name": "",
          "type": "bytes32"
        }
      ],
      "stateMutability": "view",
      "type": "function"
    },
    {
      "inputs": [],
      "name": "MINTER_ROLE",
      "outputs": [
        {
          "internalType": "bytes32",
          "name": "",
          "type": "bytes32"
        }
      ],
      "stateMutability": "view",
      "type": "function"
    },
    {
      "inputs": [
        {
          "internalType": "address",
          "name": "owner",
          "type": "address"
        },
        {
          "internalType": "address",
          "name": "spender",
          "type": "address"
        }
      ],
      "name": "allowance",
      "outputs": [
        {
          "internalType": "uint256",
          "name": "",
          "type": "uint256"
        }
      ],
      "stateMutability": "view",
      "type": "function"
    },
    {
      "inputs": [
        {
          "internalType": "address",
          "name": "spender",
          "type": "address"
        },
        {
          "internalType": "uint256",
          "name": "amount",
          "type": "uint256"
        }
      ],
      "name": "approve",
      "outputs": [
        {
          "internalType": "bool",
          "name": "",
          "type": "bool"
        }
      ],
      "stateMutability": "nonpayable",
      "type": "function"
    },
    {
      "inputs": [
        {
          "internalType": "address",
          "name": "account",
          "type": "address"
        }
      ],
      "name": "balanceOf",
      "outputs": [
        {
          "internalType": "uint256",
          "name": "",
          "type": "uint256"
        }
      ],
      "stateMutability": "view",
      "type": "function"
    },
    {
      "inputs": [
        {
          "internalType": "uint256",
          "name": "amount",
          "type": "uint256"
        }
      ],
      "name": "burn",
      "outputs": [],
      "stateMutability": "nonpayable",
      "type": "function"
    },
    {
      "inputs": [
        {
          "internalType": "address",
          "name": "account",
          "type": "address"
        },
        {
          "internalType": "uint256",
          "name": "amount",
          "type": "uint256"
        }
      ],
      "name": "burnFrom",
      "outputs": [],
      "stateMutability": "nonpayable",
      "type": "function"
    },
    {
      "inputs": [],
      "name": "decimals",
      "outputs": [
        {
          "internalType": "uint8",
          "name": "",
          "type": "uint8"
        }
      ],
      "stateMutability": "view",
      "type": "function"
    },
    {
      "inputs": [
        {
          "internalType": "address",
          "name": "spender",
          "type": "address"
        },
        {
          "internalType": "uint256",
          "name": "subtractedValue",
          "type": "uint256"
        }
      ],
      "name": "decreaseAllowance",
      "outputs": [
        {
          "internalType": "bool",
          "name": "",
          "type": "bool"
        }
      ],
      "stateMutability": "nonpayable",
      "type": "function"
    },
    {
      "inputs": [
        {
          "internalType": "bytes32",
          "name": "role",
          "type": "bytes32"
        }
      ],
      "name": "getRoleAdmin",
      "outputs": [
        {
          "internalType": "bytes32",
          "name": "",
          "type": "bytes32"
        }
      ],
      "stateMutability": "view",
      "type": "function"
    },
    {
      "inputs": [
        {
          "internalType": "bytes32",
          "name": "role",
          "type": "bytes32"
        },
        {
          "internalType": "uint256",
          "name": "index",
          "type": "uint256"
        }
      ],
      "name": "getRoleMember",
      "outputs": [
        {
          "internalType": "address",
          "name": "",
          "type": "address"
        }
      ],
      "stateMutability": "view",
      "type": "function"
    },
    {
      "inputs": [
        {
          "internalType": "bytes32",
          "name": "role",
          "type": "bytes32"
        }
      ],
      "name": "getRoleMemberCount",
      "outputs": [
        {
          "internalType": "uint256",
          "name": "",
          "type": "uint256"
        }
      ],
      "stateMutability": "view",
      "type": "function"
    },
    {
      "inputs": [
        {
          "internalType": "bytes32",
          "name": "role",
          "type": "bytes32"
        },
        {
          "internalType": "address",
          "name": "account",
          "type": "address"
        }
      ],
      "name": "grantRole",
      "outputs": [],
      "stateMutability": "nonpayable",
      "type": "function"
    },
    {
      "inputs": [
        {
          "internalType": "bytes32",
          "name": "role",
          "type": "bytes32"
        },
        {
          "internalType": "address",
          "name": "account",
          "type": "address"
        }
      ],
      "name": "hasRole",
      "outputs": [
        {
          "internalType": "bool",
          "name": "",
          "type": "bool"
        }
      ],
      "stateMutability": "view",
      "type": "function"
    },
    {
      "inputs": [
        {
          "internalType": "address",
          "name": "spender",
          "type": "address"
        },
        {
          "internalType": "uint256",
          "name": "addedValue",
          "type": "uint256"
        }
      ],
      "name": "increaseAllowance",
      "outputs": [
        {
          "internalType": "bool",
          "name": "",
          "type": "bool"
        }
      ],
      "stateMutability": "nonpayable",
      "type": "function"
    },
    {
      "inputs": [
        {
          "internalType": "address",
          "name": "to",
          "type": "address"
        },
        {
          "internalType": "uint256",
          "name": "amount",
          "type": "uint256"
        }
      ],
      "name": "mint",
      "outputs": [],
      "stateMutability": "nonpayable",
      "type": "function"
    },
    {
      "inputs": [],
      "name": "name",
      "outputs": [
        {
          "internalType": "string",
          "name": "",
          "type": "string"
        }
      ],
      "stateMutability": "view",
      "type": "function"
    },
    {
      "inputs": [
        {
          "internalType": "bytes32",
          "name": "role",
          "type": "bytes32"
        },
        {
          "internalType": "address",
          "name": "account",
          "type": "address"
        }
      ],
      "name": "renounceRole",
      "outputs": [],
      "stateMutability": "nonpayable",
      "type": "function"
    },
    {
      "inputs": [
        {
          "internalType": "bytes32",
          "name": "role",
          "type": "bytes32"
        },
        {
          "internalType": "address",
          "name": "account",
          "type": "address"
        }
      ],
      "name": "revokeRole",
      "outputs": [],
      "stateMutability": "nonpayable",
      "type": "function"
    },
    {
      "inputs": [
        {
          "internalType": "bytes4",
          "name": "interfaceId",
          "type": "bytes4"
        }
      ],
      "name": "supportsInterface",
      "outputs": [
        {
          "internalType": "bool",
          "name": "",
          "type": "bool"
        }
      ],
      "stateMutability": "view",
      "type": "function"
    },
    {
      "inputs": [],
      "name": "symbol",
      "outputs": [
        {
          "internalType": "string",
          "name": "",
          "type": "string"
        }
      ],
      "stateMutability": "view",
      "type": "function"
    },
    {
      "inputs": [],
      "name": "totalSupply",
      "outputs": [
        {
          "internalType": "uint256",
          "name": "",
          "type": "uint256"
        }
      ],
      "stateMutability": "view",
      "type": "function"
    },
    {
      "inputs": [
        {
          "internalType": "address",
          "name": "recipient",
          "type": "address"
        },
        {
          "internalType": "uint256",
          "name": "amount",
          "type": "uint256"
        }
      ],
      "name": "transfer",
      "outputs": [
        {
          "internalType": "bool",
          "name": "",
          "type": "bool"
        }
      ],
      "stateMutability": "nonpayable",
      "type": "function"
    },
    {
      "inputs": [
        {
          "internalType": "address",
          "name": "sender",
          "type": "address"
        },
        {
          "internalType": "address",
          "name": "recipient",
          "type": "address"
        },
        {
          "internalType": "uint256",
          "name": "amount",
          "type": "uint256"
        }
      ],
      "name": "transferFrom",
      "outputs": [
        {
          "internalType": "bool",
          "name": "",
          "type": "bool"
        }
      ],
      "stateMutability": "nonpayable",
      "type": "function"
    }
  ],
  "bytecode": "0x60806040523480156200001157600080fd5b506040516200338c3803806200338c833981810160405281019062000037919062000492565b818181600590805190602001906200005192919062000370565b5080600690805190602001906200006a92919062000370565b505050620000916000801b62000085620000da60201b60201c565b620000e260201b60201c565b620000d27f9f2df0fed2c77648de5860a4cc508cd0818c85b8b8a1ab4ceeef8d981c8956a6620000c6620000da60201b60201c565b620000e260201b60201c565b505062000636565b600033905090565b620000f982826200012a60201b62000cf51760201c565b6200012581600160008581526020019081526020016000206200014060201b62000d031790919060201c565b505050565b6200013c82826200017860201b60201c565b5050565b600062000170836000018373ffffffffffffffffffffffffffffffffffffffff1660001b6200026960201b60201c565b905092915050565b6200018a8282620002e360201b60201c565b6200026557600160008084815260200190815260200160002060000160008373ffffffffffffffffffffffffffffffffffffffff1673ffffffffffffffffffffffffffffffffffffffff16815260200190815260200160002060006101000a81548160ff0219169083151502179055506200020a620000da60201b60201c565b73ffffffffffffffffffffffffffffffffffffffff168173ffffffffffffffffffffffffffffffffffffffff16837f2f8788117e7eff1d82e926ec794901d17c78024a50270940304540a733656f0d60405160405180910390a45b5050565b60006200027d83836200034d60201b60201c565b620002d8578260000182908060018154018082558091505060019003906000526020600020016000909190919091505582600001805490508360010160008481526020019081526020016000208190555060019050620002dd565b600090505b92915050565b600080600084815260200190815260200160002060000160008373ffffffffffffffffffffffffffffffffffffffff1673ffffffffffffffffffffffffffffffffffffffff16815260200190815260200160002060009054906101000a900460ff16905092915050565b600080836001016000848152602001908152602001600020541415905092915050565b8280546200037e90620005a2565b90600052602060002090601f016020900481019282620003a25760008555620003ee565b82601f10620003bd57805160ff1916838001178555620003ee565b82800160010185558215620003ee579182015b82811115620003ed578251825591602001919060010190620003d0565b5b509050620003fd919062000401565b5090565b5b808211156200041c57600081600090555060010162000402565b5090565b600062000437620004318462000539565b62000505565b9050828152602081018484840111156200045057600080fd5b6200045d8482856200056c565b509392505050565b600082601f8301126200047757600080fd5b81516200048984826020860162000420565b91505092915050565b60008060408385031215620004a657600080fd5b600083015167ffffffffffffffff811115620004c157600080fd5b620004cf8582860162000465565b925050602083015167ffffffffffffffff811115620004ed57600080fd5b620004fb8582860162000465565b9150509250929050565b6000604051905081810181811067ffffffffffffffff821117156200052f576200052e62000607565b5b8060405250919050565b600067ffffffffffffffff82111562000557576200055662000607565b5b601f19601f8301169050602081019050919050565b60005b838110156200058c5780820151818401526020810190506200056f565b838111156200059c576000848401525b50505050565b60006002820490506001821680620005bb57607f821691505b60208210811415620005d257620005d1620005d8565b5b50919050565b7f4e487b7100000000000000000000000000000000000000000000000000000000600052602260045260246000fd5b7f4e487b7100000000000000000000000000000000000000000000000000000000600052604160045260246000fd5b612d4680620006466000396000f3fe608060405234801561001057600080fd5b50600436106101585760003560e01c806370a08231116100c3578063a457c2d71161007c578063a457c2d7146103ff578063a9059cbb1461042f578063ca15c8731461045f578063d53913931461048f578063d547741f146104ad578063dd62ed3e146104c957610158565b806370a082311461031757806379cc6790146103475780639010d07c1461036357806391d148541461039357806395d89b41146103c3578063a217fddf146103e157610158565b80632f2ff15d116101155780632f2ff15d14610259578063313ce5671461027557806336568abe1461029357806339509351146102af57806340c10f19146102df57806342966c68146102fb57610158565b806301ffc9a71461015d57806306fdde031461018d578063095ea7b3146101ab57806318160ddd146101db57806323b872dd146101f9578063248a9ca314610229575b600080fd5b610177600480360381019061017291906120ae565b6104f9565b60405161018491906127d2565b60405180910390f35b610195610573565b6040516101a29190612808565b60405180910390f35b6101c560048036038101906101c09190611fd1565b610605565b6040516101d291906127d2565b60405180910390f35b6101e3610623565b6040516101f091906129ea565b60405180910390f35b610213600480360381019061020e9190611f82565b61062d565b60405161022091906127d2565b60405180910390f35b610243600480360381019061023e919061200d565b610725565b60405161025091906127ed565b60405180910390f35b610273600480360381019061026e9190612036565b610744565b005b61027d610778565b60405161028a9190612a05565b60405180910390f35b6102ad60048036038101906102a89190612036565b610781565b005b6102c960048036038101906102c49190611fd1565b6107b5565b6040516102d691906127d2565b60405180910390f35b6102f960048036038101906102f49190611fd1565b610861565b005b610315600480360381019061031091906120d7565b6108df565b005b610331600480360381019061032c9190611f1d565b6108f3565b60405161033e91906129ea565b60405180910390f35b610361600480360381019061035c9190611fd1565b61093c565b005b61037d60048036038101906103789190612072565b6109b7565b60405161038a91906127b7565b60405180910390f35b6103ad60048036038101906103a89190612036565b6109e6565b6040516103ba91906127d2565b60405180910390f35b6103cb610a50565b6040516103d89190612808565b60405180910390f35b6103e9610ae2565b6040516103f691906127ed565b60405180910390f35b61041960048036038101906104149190611fd1565b610ae9565b60405161042691906127d2565b60405180910390f35b61044960048036038101906104449190611fd1565b610bd4565b60405161045691906127d2565b60405180910390f35b6104796004803603810190610474919061200d565b610bf2565b60405161048691906129ea565b60405180910390f35b610497610c16565b6040516104a491906127ed565b60405180910390f35b6104c760048036038101906104c29190612036565b610c3a565b005b6104e360048036038101906104de9190611f46565b610c6e565b6040516104f091906129ea565b60405180910390f35b60007f5a05180f000000000000000000000000000000000000000000000000000000007bffffffffffffffffffffffffffffffffffffffffffffffffffffffff1916827bffffffffffffffffffffffffffffffffffffffffffffffffffffffff1916148061056c575061056b82610d33565b5b9050919050565b60606005805461058290612c13565b80601f01602080910402602001604051908101604052809291908181526020018280546105ae90612c13565b80156105fb5780601f106105d0576101008083540402835291602001916105fb565b820191906000526020600020905b8154815290600101906020018083116105de57829003601f168201915b5050505050905090565b6000610619610612610dad565b8484610db5565b6001905092915050565b6000600454905090565b600061063a848484610f80565b6000600360008673ffffffffffffffffffffffffffffffffffffffff1673ffffffffffffffffffffffffffffffffffffffff1681526020019081526020016000206000610685610dad565b73ffffffffffffffffffffffffffffffffffffffff1673ffffffffffffffffffffffffffffffffffffffff16815260200190815260200160002054905082811015610705576040517f08c379a00000000000000000000000000000000000000000000000000000000081526004016106fc906128ea565b60405180910390fd5b61071985610711610dad565b858403610db5565b60019150509392505050565b6000806000838152602001908152602001600020600101549050919050565b61074e8282611204565b6107738160016000858152602001908152602001600020610d0390919063ffffffff16565b505050565b60006012905090565b61078b828261122d565b6107b081600160008581526020019081526020016000206112b090919063ffffffff16565b505050565b60006108576107c2610dad565b8484600360006107d0610dad565b73ffffffffffffffffffffffffffffffffffffffff1673ffffffffffffffffffffffffffffffffffffffff16815260200190815260200160002060008873ffffffffffffffffffffffffffffffffffffffff1673ffffffffffffffffffffffffffffffffffffffff168152602001908152602001600020546108529190612a47565b610db5565b6001905092915050565b6108927f9f2df0fed2c77648de5860a4cc508cd0818c85b8b8a1ab4ceeef8d981c8956a661088d610dad565b6109e6565b6108d1576040517f08c379a00000000000000000000000000000000000000000000000000000000081526004016108c89061286a565b60405180910390fd5b6108db82826112e0565b5050565b6108f06108ea610dad565b82611441565b50565b6000600260008373ffffffffffffffffffffffffffffffffffffffff1673ffffffffffffffffffffffffffffffffffffffff168152602001908152602001600020549050919050565b600061094f8361094a610dad565b610c6e565b905081811015610994576040517f08c379a000000000000000000000000000000000000000000000000000000000815260040161098b9061290a565b60405180910390fd5b6109a8836109a0610dad565b848403610db5565b6109b28383611441565b505050565b60006109de826001600086815260200190815260200160002061161a90919063ffffffff16565b905092915050565b600080600084815260200190815260200160002060000160008373ffffffffffffffffffffffffffffffffffffffff1673ffffffffffffffffffffffffffffffffffffffff16815260200190815260200160002060009054906101000a900460ff16905092915050565b606060068054610a5f90612c13565b80601f0160208091040260200160405190810160405280929190818152602001828054610a8b90612c13565b8015610ad85780601f10610aad57610100808354040283529160200191610ad8565b820191906000526020600020905b815481529060010190602001808311610abb57829003601f168201915b5050505050905090565b6000801b81565b60008060036000610af8610dad565b73ffffffffffffffffffffffffffffffffffffffff1673ffffffffffffffffffffffffffffffffffffffff16815260200190815260200160002060008573ffffffffffffffffffffffffffffffffffffffff1673ffffffffffffffffffffffffffffffffffffffff16815260200190815260200160002054905082811015610bb5576040517f08c379a0000000000000000000000000000000000000000000000000000000008152600401610bac9061298a565b60405180910390fd5b610bc9610bc0610dad565b85858403610db5565b600191505092915050565b6000610be8610be1610dad565b8484610f80565b6001905092915050565b6000610c0f60016000848152602001908152602001600020611634565b9050919050565b7f9f2df0fed2c77648de5860a4cc508cd0818c85b8b8a1ab4ceeef8d981c8956a681565b610c448282611649565b610c6981600160008581526020019081526020016000206112b090919063ffffffff16565b505050565b6000600360008473ffffffffffffffffffffffffffffffffffffffff1673ffffffffffffffffffffffffffffffffffffffff16815260200190815260200160002060008373ffffffffffffffffffffffffffffffffffffffff1673ffffffffffffffffffffffffffffffffffffffff16815260200190815260200160002054905092915050565b610cff8282611672565b5050565b6000610d2b836000018373ffffffffffffffffffffffffffffffffffffffff1660001b611752565b905092915050565b60007f7965db0b000000000000000000000000000000000000000000000000000000007bffffffffffffffffffffffffffffffffffffffffffffffffffffffff1916827bffffffffffffffffffffffffffffffffffffffffffffffffffffffff19161480610da65750610da5826117c2565b5b9050919050565b600033905090565b600073ffffffffffffffffffffffffffffffffffffffff168373ffffffffffffffffffffffffffffffffffffffff161415610e25576040517f08c379a0000000000000000000000000000000000000000000000000000000008152600401610e1c9061296a565b60405180910390fd5b600073ffffffffffffffffffffffffffffffffffffffff168273ffffffffffffffffffffffffffffffffffffffff161415610e95576040517f08c379a0000000000000000000000000000000000000000000000000000000008152600401610e8c906128aa565b60405180910390fd5b80600360008573ffffffffffffffffffffffffffffffffffffffff1673ffffffffffffffffffffffffffffffffffffffff16815260200190815260200160002060008473ffffffffffffffffffffffffffffffffffffffff1673ffffffffffffffffffffffffffffffffffffffff168152602001908152602001600020819055508173ffffffffffffffffffffffffffffffffffffffff168373ffffffffffffffffffffffffffffffffffffffff167f8c5be1e5ebec7d5bd14f71427d1e84f3dd0314c0f7b2291e5b200ac8c7c3b92583604051610f7391906129ea565b60405180910390a3505050565b600073ffffffffffffffffffffffffffffffffffffffff168373ffffffffffffffffffffffffffffffffffffffff161415610ff0576040517f08c379a0000000000000000000000000000000000000000000000000000000008152600401610fe79061294a565b60405180910390fd5b600073ffffffffffffffffffffffffffffffffffffffff168273ffffffffffffffffffffffffffffffffffffffff161415611060576040517f08c379a00000000000000000000000000000000000000000000000000000000081526004016110579061284a565b60405180910390fd5b61106b83838361182c565b6000600260008573ffffffffffffffffffffffffffffffffffffffff1673ffffffffffffffffffffffffffffffffffffffff168152602001908152602001600020549050818110156110f2576040517f08c379a00000000000000000000000000000000000000000000000000000000081526004016110e9906128ca565b60405180910390fd5b818103600260008673ffffffffffffffffffffffffffffffffffffffff1673ffffffffffffffffffffffffffffffffffffffff1681526020019081526020016000208190555081600260008573ffffffffffffffffffffffffffffffffffffffff1673ffffffffffffffffffffffffffffffffffffffff16815260200190815260200160002060008282546111879190612a47565b925050819055508273ffffffffffffffffffffffffffffffffffffffff168473ffffffffffffffffffffffffffffffffffffffff167fddf252ad1be2c89b69c2b068fc378daa952ba7f163c4a11628f55a4df523b3ef846040516111eb91906129ea565b60405180910390a36111fe84848461183c565b50505050565b61120d82610725565b61121e81611219610dad565b611841565b6112288383611672565b505050565b611235610dad565b73ffffffffffffffffffffffffffffffffffffffff168173ffffffffffffffffffffffffffffffffffffffff16146112a2576040517f08c379a0000000000000000000000000000000000000000000000000000000008152600401611299906129aa565b60405180910390fd5b6112ac82826118de565b5050565b60006112d8836000018373ffffffffffffffffffffffffffffffffffffffff1660001b6119bf565b905092915050565b600073ffffffffffffffffffffffffffffffffffffffff168273ffffffffffffffffffffffffffffffffffffffff161415611350576040517f08c379a0000000000000000000000000000000000000000000000000000000008152600401611347906129ca565b60405180910390fd5b61135c6000838361182c565b806004600082825461136e9190612a47565b9250508190555080600260008473ffffffffffffffffffffffffffffffffffffffff1673ffffffffffffffffffffffffffffffffffffffff16815260200190815260200160002060008282546113c49190612a47565b925050819055508173ffffffffffffffffffffffffffffffffffffffff16600073ffffffffffffffffffffffffffffffffffffffff167fddf252ad1be2c89b69c2b068fc378daa952ba7f163c4a11628f55a4df523b3ef8360405161142991906129ea565b60405180910390a361143d6000838361183c565b5050565b600073ffffffffffffffffffffffffffffffffffffffff168273ffffffffffffffffffffffffffffffffffffffff1614156114b1576040517f08c379a00000000000000000000000000000000000000000000000000000000081526004016114a89061292a565b60405180910390fd5b6114bd8260008361182c565b6000600260008473ffffffffffffffffffffffffffffffffffffffff1673ffffffffffffffffffffffffffffffffffffffff16815260200190815260200160002054905081811015611544576040517f08c379a000000000000000000000000000000000000000000000000000000000815260040161153b9061288a565b60405180910390fd5b818103600260008573ffffffffffffffffffffffffffffffffffffffff1673ffffffffffffffffffffffffffffffffffffffff16815260200190815260200160002081905550816004600082825461159c9190612af7565b92505081905550600073ffffffffffffffffffffffffffffffffffffffff168373ffffffffffffffffffffffffffffffffffffffff167fddf252ad1be2c89b69c2b068fc378daa952ba7f163c4a11628f55a4df523b3ef8460405161160191906129ea565b60405180910390a36116158360008461183c565b505050565b60006116298360000183611b45565b60001c905092915050565b600061164282600001611b96565b9050919050565b61165282610725565b6116638161165e610dad565b611841565b61166d83836118de565b505050565b61167c82826109e6565b61174e57600160008084815260200190815260200160002060000160008373ffffffffffffffffffffffffffffffffffffffff1673ffffffffffffffffffffffffffffffffffffffff16815260200190815260200160002060006101000a81548160ff0219169083151502179055506116f3610dad565b73ffffffffffffffffffffffffffffffffffffffff168173ffffffffffffffffffffffffffffffffffffffff16837f2f8788117e7eff1d82e926ec794901d17c78024a50270940304540a733656f0d60405160405180910390a45b5050565b600061175e8383611ba7565b6117b75782600001829080600181540180825580915050600190039060005260206000200160009091909190915055826000018054905083600101600084815260200190815260200160002081905550600190506117bc565b600090505b92915050565b60007f01ffc9a7000000000000000000000000000000000000000000000000000000007bffffffffffffffffffffffffffffffffffffffffffffffffffffffff1916827bffffffffffffffffffffffffffffffffffffffffffffffffffffffff1916149050919050565b611837838383611bca565b505050565b505050565b61184b82826109e6565b6118da576118708173ffffffffffffffffffffffffffffffffffffffff166014611bcf565b61187e8360001c6020611bcf565b60405160200161188f92919061277d565b6040516020818303038152906040526040517f08c379a00000000000000000000000000000000000000000000000000000000081526004016118d19190612808565b60405180910390fd5b5050565b6118e882826109e6565b156119bb57600080600084815260200190815260200160002060000160008373ffffffffffffffffffffffffffffffffffffffff1673ffffffffffffffffffffffffffffffffffffffff16815260200190815260200160002060006101000a81548160ff021916908315150217905550611960610dad565b73ffffffffffffffffffffffffffffffffffffffff168173ffffffffffffffffffffffffffffffffffffffff16837ff6391f5c32d9c69d2a47ea670b442974b53935d1edc7fd64eb21e047a839171b60405160405180910390a45b5050565b60008083600101600084815260200190815260200160002054905060008114611b395760006001826119f19190612af7565b9050600060018660000180549050611a099190612af7565b9050818114611ac4576000866000018281548110611a50577f4e487b7100000000000000000000000000000000000000000000000000000000600052603260045260246000fd5b9060005260206000200154905080876000018481548110611a9a577f4e487b7100000000000000000000000000000000000000000000000000000000600052603260045260246000fd5b90600052602060002001819055508387600101600083815260200190815260200160002081905550505b85600001805480611afe577f4e487b7100000000000000000000000000000000000000000000000000000000600052603160045260246000fd5b600190038181906000526020600020016000905590558560010160008681526020019081526020016000206000905560019350505050611b3f565b60009150505b92915050565b6000826000018281548110611b83577f4e487b7100000000000000000000000000000000000000000000000000000000600052603260045260246000fd5b9060005260206000200154905092915050565b600081600001805490509050919050565b600080836001016000848152602001908152602001600020541415905092915050565b505050565b606060006002836002611be29190612a9d565b611bec9190612a47565b67ffffffffffffffff811115611c2b577f4e487b7100000000000000000000000000000000000000000000000000000000600052604160045260246000fd5b6040519080825280601f01601f191660200182016040528015611c5d5781602001600182028036833780820191505090505b5090507f300000000000000000000000000000000000000000000000000000000000000081600081518110611cbb577f4e487b7100000000000000000000000000000000000000000000000000000000600052603260045260246000fd5b60200101907effffffffffffffffffffffffffffffffffffffffffffffffffffffffffffff1916908160001a9053507f780000000000000000000000000000000000000000000000000000000000000081600181518110611d45577f4e487b7100000000000000000000000000000000000000000000000000000000600052603260045260246000fd5b60200101907effffffffffffffffffffffffffffffffffffffffffffffffffffffffffffff1916908160001a90535060006001846002611d859190612a9d565b611d8f9190612a47565b90505b6001811115611e7b577f3031323334353637383961626364656600000000000000000000000000000000600f861660108110611df7577f4e487b7100000000000000000000000000000000000000000000000000000000600052603260045260246000fd5b1a60f81b828281518110611e34577f4e487b7100000000000000000000000000000000000000000000000000000000600052603260045260246000fd5b60200101907effffffffffffffffffffffffffffffffffffffffffffffffffffffffffffff1916908160001a905350600485901c945080611e7490612be9565b9050611d92565b5060008414611ebf576040517f08c379a0000000000000000000000000000000000000000000000000000000008152600401611eb69061282a565b60405180910390fd5b8091505092915050565b600081359050611ed881612cb4565b92915050565b600081359050611eed81612ccb565b92915050565b600081359050611f0281612ce2565b92915050565b600081359050611f1781612cf9565b92915050565b600060208284031215611f2f57600080fd5b6000611f3d84828501611ec9565b91505092915050565b60008060408385031215611f5957600080fd5b6000611f6785828601611ec9565b9250506020611f7885828601611ec9565b9150509250929050565b600080600060608486031215611f9757600080fd5b6000611fa586828701611ec9565b9350506020611fb686828701611ec9565b9250506040611fc786828701611f08565b9150509250925092565b60008060408385031215611fe457600080fd5b6000611ff285828601611ec9565b925050602061200385828601611f08565b9150509250929050565b60006020828403121561201f57600080fd5b600061202d84828501611ede565b91505092915050565b6000806040838503121561204957600080fd5b600061205785828601611ede565b925050602061206885828601611ec9565b9150509250929050565b6000806040838503121561208557600080fd5b600061209385828601611ede565b92505060206120a485828601611f08565b9150509250929050565b6000602082840312156120c057600080fd5b60006120ce84828501611ef3565b91505092915050565b6000602082840312156120e957600080fd5b60006120f784828501611f08565b91505092915050565b61210981612b2b565b82525050565b61211881612b3d565b82525050565b61212781612b49565b82525050565b600061213882612a20565b6121428185612a2b565b9350612152818560208601612bb6565b61215b81612ca3565b840191505092915050565b600061217182612a20565b61217b8185612a3c565b935061218b818560208601612bb6565b80840191505092915050565b60006121a4602083612a2b565b91507f537472696e67733a20686578206c656e67746820696e73756666696369656e746000830152602082019050919050565b60006121e4602383612a2b565b91507f45524332303a207472616e7366657220746f20746865207a65726f206164647260008301527f65737300000000000000000000000000000000000000000000000000000000006020830152604082019050919050565b600061224a603083612a2b565b91507f45524332305072657365744d696e7465723a206d7573742068617665206d696e60008301527f74657220726f6c6520746f206d696e74000000000000000000000000000000006020830152604082019050919050565b60006122b0602283612a2b565b91507f45524332303a206275726e20616d6f756e7420657863656564732062616c616e60008301527f63650000000000000000000000000000000000000000000000000000000000006020830152604082019050919050565b6000612316602283612a2b565b91507f45524332303a20617070726f766520746f20746865207a65726f20616464726560008301527f73730000000000000000000000000000000000000000000000000000000000006020830152604082019050919050565b600061237c602683612a2b565b91507f45524332303a207472616e7366657220616d6f756e742065786365656473206260008301527f616c616e636500000000000000000000000000000000000000000000000000006020830152604082019050919050565b60006123e2602883612a2b565b91507f45524332303a207472616e7366657220616d6f756e742065786365656473206160008301527f6c6c6f77616e63650000000000000000000000000000000000000000000000006020830152604082019050919050565b6000612448602483612a2b565b91507f45524332303a206275726e20616d6f756e74206578636565647320616c6c6f7760008301527f616e6365000000000000000000000000000000000000000000000000000000006020830152604082019050919050565b60006124ae602183612a2b565b91507f45524332303a206275726e2066726f6d20746865207a65726f2061646472657360008301527f73000000000000000000000000000000000000000000000000000000000000006020830152604082019050919050565b6000612514602583612a2b565b91507f45524332303a207472616e736665722066726f6d20746865207a65726f20616460008301527f64726573730000000000000000000000000000000000000000000000000000006020830152604082019050919050565b600061257a602483612a2b565b91507f45524332303a20617070726f76652066726f6d20746865207a65726f2061646460008301527f72657373000000000000000000000000000000000000000000000000000000006020830152604082019050919050565b60006125e0601783612a3c565b91507f416363657373436f6e74726f6c3a206163636f756e74200000000000000000006000830152601782019050919050565b6000612620602583612a2b565b91507f45524332303a2064656372656173656420616c6c6f77616e63652062656c6f7760008301527f207a65726f0000000000000000000000000000000000000000000000000000006020830152604082019050919050565b6000612686601183612a3c565b91507f206973206d697373696e6720726f6c65200000000000000000000000000000006000830152601182019050919050565b60006126c6602f83612a2b565b91507f416363657373436f6e74726f6c3a2063616e206f6e6c792072656e6f756e636560008301527f20726f6c657320666f722073656c6600000000000000000000000000000000006020830152604082019050919050565b600061272c601f83612a2b565b91507f45524332303a206d696e7420746f20746865207a65726f2061646472657373006000830152602082019050919050565b61276881612b9f565b82525050565b61277781612ba9565b82525050565b6000612788826125d3565b91506127948285612166565b915061279f82612679565b91506127ab8284612166565b91508190509392505050565b60006020820190506127cc6000830184612100565b92915050565b60006020820190506127e7600083018461210f565b92915050565b6000602082019050612802600083018461211e565b92915050565b60006020820190508181036000830152612822818461212d565b905092915050565b6000602082019050818103600083015261284381612197565b9050919050565b60006020820190508181036000830152612863816121d7565b9050919050565b600060208201905081810360008301526128838161223d565b9050919050565b600060208201905081810360008301526128a3816122a3565b9050919050565b600060208201905081810360008301526128c381612309565b9050919050565b600060208201905081810360008301526128e38161236f565b9050919050565b60006020820190508181036000830152612903816123d5565b9050919050565b600060208201905081810360008301526129238161243b565b9050919050565b60006020820190508181036000830152612943816124a1565b9050919050565b6000602082019050818103600083015261296381612507565b9050919050565b600060208201905081810360008301526129838161256d565b9050919050565b600060208201905081810360008301526129a381612613565b9050919050565b600060208201905081810360008301526129c3816126b9565b9050919050565b600060208201905081810360008301526129e38161271f565b9050919050565b60006020820190506129ff600083018461275f565b92915050565b6000602082019050612a1a600083018461276e565b92915050565b600081519050919050565b600082825260208201905092915050565b600081905092915050565b6000612a5282612b9f565b9150612a5d83612b9f565b9250827fffffffffffffffffffffffffffffffffffffffffffffffffffffffffffffffff03821115612a9257612a91612c45565b5b828201905092915050565b6000612aa882612b9f565b9150612ab383612b9f565b9250817fffffffffffffffffffffffffffffffffffffffffffffffffffffffffffffffff0483118215151615612aec57612aeb612c45565b5b828202905092915050565b6000612b0282612b9f565b9150612b0d83612b9f565b925082821015612b2057612b1f612c45565b5b828203905092915050565b6000612b3682612b7f565b9050919050565b60008115159050919050565b6000819050919050565b60007fffffffff0000000000000000000000000000000000000000000000000000000082169050919050565b600073ffffffffffffffffffffffffffffffffffffffff82169050919050565b6000819050919050565b600060ff82169050919050565b60005b83811015612bd4578082015181840152602081019050612bb9565b83811115612be3576000848401525b50505050565b6000612bf482612b9f565b91506000821415612c0857612c07612c45565b5b600182039050919050565b60006002820490506001821680612c2b57607f821691505b60208210811415612c3f57612c3e612c74565b5b50919050565b7f4e487b7100000000000000000000000000000000000000000000000000000000600052601160045260246000fd5b7f4e487b7100000000000000000000000000000000000000000000000000000000600052602260045260246000fd5b6000601f19601f8301169050919050565b612cbd81612b2b565b8114612cc857600080fd5b50565b612cd481612b49565b8114612cdf57600080fd5b50565b612ceb81612b53565b8114612cf657600080fd5b50565b612d0281612b9f565b8114612d0d57600080fd5b5056fea26469706673582212204ea6f94074767c1b66d1f8180666c2afcb01a7ca5c18620ae2753ba339682be964736f6c63430008000033",
  "linkReferences": {},
  "deployedLinkReferences": {}
}