{
  "_format": "hh-sol-artifact-1",
  "contractName": "SteadyEarn",
  "sourceName": "contracts/SteadyEarn.sol",
  "abi": [
    {
      "inputs": [
        {
          "internalType": "address",
          "name": "_balancerVault",
          "type": "address"
        },
        {
          "internalType": "address",
          "name": "_iWeth",
          "type": "address"
        },
        {
          "internalType": "address",
          "name": "_currentPToken",
          "type": "address"
        },
        {
          "internalType": "address",
          "name": "_earnToken",
          "type": "address"
        },
        {
          "internalType": "address",
          "name": "_currentTranche",
          "type": "address"
        },
        {
          "internalType": "contract IAsset",
          "name": "_assetWeth",
          "type": "address"
        },
        {
          "internalType": "contract IAsset",
          "name": "_assetPT",
          "type": "address"
        },
        {
          "internalType": "bytes32",
          "name": "_balancerPoolId",
          "type": "bytes32"
        }
      ],
      "stateMutability": "nonpayable",
      "type": "constructor"
    },
    {
      "anonymous": false,
      "inputs": [
        {
          "indexed": false,
          "internalType": "bytes32",
          "name": "message",
          "type": "bytes32"
        },
        {
          "indexed": false,
          "internalType": "uint256",
          "name": "amount",
          "type": "uint256"
        },
        {
          "indexed": false,
          "internalType": "address",
          "name": "receiver",
          "type": "address"
        }
      ],
      "name": "NewMinting",
      "type": "event"
    },
    {
      "anonymous": false,
      "inputs": [
        {
          "indexed": true,
          "internalType": "address",
          "name": "previousOwner",
          "type": "address"
        },
        {
          "indexed": true,
          "internalType": "address",
          "name": "newOwner",
          "type": "address"
        }
      ],
      "name": "OwnershipTransferred",
      "type": "event"
    },
    {
      "inputs": [],
      "name": "balanceOfContract",
      "outputs": [
        {
          "internalType": "uint256",
          "name": "",
          "type": "uint256"
        }
      ],
      "stateMutability": "view",
      "type": "function"
    },
    {
      "inputs": [
        {
          "internalType": "uint256",
          "name": "_deadline",
          "type": "uint256"
        }
      ],
      "name": "deposit",
      "outputs": [],
      "stateMutability": "payable",
      "type": "function"
    },
    {
      "inputs": [],
      "name": "iWeth",
      "outputs": [
        {
          "internalType": "contract IWeth",
          "name": "",
          "type": "address"
        }
      ],
      "stateMutability": "view",
      "type": "function"
    },
    {
      "inputs": [
        {
          "internalType": "contract IAsset",
          "name": "_newTermPTAsset",
          "type": "address"
        },
        {
          "internalType": "address",
          "name": "_newTranche",
          "type": "address"
        },
        {
          "internalType": "bytes32",
          "name": "_newPoolId",
          "type": "bytes32"
        },
        {
          "internalType": "uint256",
          "name": "_deadline",
          "type": "uint256"
        }
      ],
      "name": "migrateToNewTerm",
      "outputs": [],
      "stateMutability": "nonpayable",
      "type": "function"
    },
    {
      "inputs": [],
      "name": "owner",
      "outputs": [
        {
          "internalType": "address",
          "name": "",
          "type": "address"
        }
      ],
      "stateMutability": "view",
      "type": "function"
    },
    {
      "inputs": [],
      "name": "renounceOwnership",
      "outputs": [],
      "stateMutability": "nonpayable",
      "type": "function"
    },
    {
      "inputs": [
        {
          "internalType": "uint256",
          "name": "_amount",
          "type": "uint256"
        }
      ],
      "name": "testMinting",
      "outputs": [],
      "stateMutability": "nonpayable",
      "type": "function"
    },
    {
      "inputs": [],
      "name": "testWrapEth",
      "outputs": [],
      "stateMutability": "payable",
      "type": "function"
    },
    {
      "inputs": [
        {
          "internalType": "address",
          "name": "newOwner",
          "type": "address"
        }
      ],
      "name": "transferOwnership",
      "outputs": [],
      "stateMutability": "nonpayable",
      "type": "function"
    },
    {
      "inputs": [
        {
          "internalType": "uint256",
          "name": "amount",
          "type": "uint256"
        }
      ],
      "name": "withdrawAllBalance",
      "outputs": [],
      "stateMutability": "nonpayable",
      "type": "function"
    },
    {
      "inputs": [
        {
          "internalType": "uint256",
          "name": "amaount",
          "type": "uint256"
        }
      ],
      "name": "withdrawWeth",
      "outputs": [],
      "stateMutability": "nonpayable",
      "type": "function"
    }
  ],
  "bytecode": "0x60806040523480156200001157600080fd5b5060405162001f9638038062001f96833981810160405281019062000037919062000344565b620000576200004b6200023360201b60201c565b6200023b60201b60201c565b85600260006101000a81548173ffffffffffffffffffffffffffffffffffffffff021916908373ffffffffffffffffffffffffffffffffffffffff16021790555084600360006101000a81548173ffffffffffffffffffffffffffffffffffffffff021916908373ffffffffffffffffffffffffffffffffffffffff16021790555087600160006101000a81548173ffffffffffffffffffffffffffffffffffffffff021916908373ffffffffffffffffffffffffffffffffffffffff16021790555086600960006101000a81548173ffffffffffffffffffffffffffffffffffffffff021916908373ffffffffffffffffffffffffffffffffffffffff16021790555083600460006101000a81548173ffffffffffffffffffffffffffffffffffffffff021916908373ffffffffffffffffffffffffffffffffffffffff16021790555082600560006101000a81548173ffffffffffffffffffffffffffffffffffffffff021916908373ffffffffffffffffffffffffffffffffffffffff16021790555081600660006101000a81548173ffffffffffffffffffffffffffffffffffffffff021916908373ffffffffffffffffffffffffffffffffffffffff160217905550806007819055505050505050505050620004a7565b600033905090565b60008060009054906101000a900473ffffffffffffffffffffffffffffffffffffffff169050816000806101000a81548173ffffffffffffffffffffffffffffffffffffffff021916908373ffffffffffffffffffffffffffffffffffffffff1602179055508173ffffffffffffffffffffffffffffffffffffffff168173ffffffffffffffffffffffffffffffffffffffff167f8be0079c531659141344cd1fd0a4f28419497f9722a3daafe3b4186f6b6457e060405160405180910390a35050565b600081519050620003108162000459565b92915050565b600081519050620003278162000473565b92915050565b6000815190506200033e816200048d565b92915050565b600080600080600080600080610100898b0312156200036257600080fd5b6000620003728b828c01620002ff565b9850506020620003858b828c01620002ff565b9750506040620003988b828c01620002ff565b9650506060620003ab8b828c01620002ff565b9550506080620003be8b828c01620002ff565b94505060a0620003d18b828c016200032d565b93505060c0620003e48b828c016200032d565b92505060e0620003f78b828c0162000316565b9150509295985092959890939650565b6000620004148262000439565b9050919050565b6000819050919050565b6000620004328262000407565b9050919050565b600073ffffffffffffffffffffffffffffffffffffffff82169050919050565b620004648162000407565b81146200047057600080fd5b50565b6200047e816200041b565b81146200048a57600080fd5b50565b620004988162000425565b8114620004a457600080fd5b50565b611adf80620004b76000396000f3fe60806040526004361061009c5760003560e01c80639c1666e3116100645780639c1666e314610160578063a93a391e14610189578063b6b55f2514610193578063dd0bea13146101af578063e6c7c456146101d8578063f2fde38b146102035761009c565b80631222044f146100a157806363a49c79146100ca578063715018a6146100f35780638d0aedf11461010a5780638da5cb5b14610135575b600080fd5b3480156100ad57600080fd5b506100c860048036038101906100c3919061129a565b61022c565b005b3480156100d657600080fd5b506100f160048036038101906100ec91906112fd565b610774565b005b3480156100ff57600080fd5b506101086107cb565b005b34801561011657600080fd5b5061011f610853565b60405161012c919061160c565b60405180910390f35b34801561014157600080fd5b5061014a610879565b60405161015791906115c8565b60405180910390f35b34801561016c57600080fd5b50610187600480360381019061018291906112fd565b6108a2565b005b61019161096d565b005b6101ad60048036038101906101a891906112fd565b6109f2565b005b3480156101bb57600080fd5b506101d660048036038101906101d191906112fd565b610f14565b005b3480156101e457600080fd5b506101ed610fa4565b6040516101fa91906116e8565b60405180910390f35b34801561020f57600080fd5b5061022a60048036038101906102259190611248565b610fac565b005b6102346110a4565b73ffffffffffffffffffffffffffffffffffffffff16610252610879565b73ffffffffffffffffffffffffffffffffffffffff16146102a8576040517f08c379a000000000000000000000000000000000000000000000000000000000815260040161029f9061167c565b60405180910390fd5b6000600460009054906101000a900473ffffffffffffffffffffffffffffffffffffffff1673ffffffffffffffffffffffffffffffffffffffff1663884e17f3600260009054906101000a900473ffffffffffffffffffffffffffffffffffffffff1673ffffffffffffffffffffffffffffffffffffffff166370a08231306040518263ffffffff1660e01b815260040161034391906115c8565b60206040518083038186803b15801561035b57600080fd5b505afa15801561036f573d6000803e3d6000fd5b505050506040513d601f19601f820116820180604052508101906103939190611326565b306040518363ffffffff1660e01b81526004016103b1929190611703565b602060405180830381600087803b1580156103cb57600080fd5b505af11580156103df573d6000803e3d6000fd5b505050506040513d601f19601f820116820180604052508101906104039190611326565b905060006040518060c0016040528085815260200160006001811115610452577f4e487b7100000000000000000000000000000000000000000000000000000000600052602160045260246000fd5b8152602001600560009054906101000a900473ffffffffffffffffffffffffffffffffffffffff1673ffffffffffffffffffffffffffffffffffffffff1681526020018773ffffffffffffffffffffffffffffffffffffffff1681526020018381526020016040518060400160405280600481526020017f30783030000000000000000000000000000000000000000000000000000000008152508152509050600060405180608001604052803073ffffffffffffffffffffffffffffffffffffffff1681526020016000151581526020013073ffffffffffffffffffffffffffffffffffffffff1681526020016000151581525090506000610554846110ac565b9050600960009054906101000a900473ffffffffffffffffffffffffffffffffffffffff1673ffffffffffffffffffffffffffffffffffffffff1663095ea7b3600160009054906101000a900473ffffffffffffffffffffffffffffffffffffffff16866040518363ffffffff1660e01b81526004016105d59291906115e3565b602060405180830381600087803b1580156105ef57600080fd5b505af1158015610603573d6000803e3d6000fd5b505050506040513d601f19601f820116820180604052508101906106279190611271565b50600160009054906101000a900473ffffffffffffffffffffffffffffffffffffffff1673ffffffffffffffffffffffffffffffffffffffff166352bbbe29848484896040518563ffffffff1660e01b8152600401610689949392919061169c565b602060405180830381600087803b1580156106a357600080fd5b505af11580156106b7573d6000803e3d6000fd5b505050506040513d601f19601f820116820180604052508101906106db9190611326565b60088190555087600660006101000a81548173ffffffffffffffffffffffffffffffffffffffff021916908373ffffffffffffffffffffffffffffffffffffffff16021790555086600460006101000a81548173ffffffffffffffffffffffffffffffffffffffff021916908373ffffffffffffffffffffffffffffffffffffffff160217905550856007819055505050505050505050565b4781111561078157600080fd5b3373ffffffffffffffffffffffffffffffffffffffff166108fc829081150290604051600060405180830381858888f193505050501580156107c7573d6000803e3d6000fd5b5050565b6107d36110a4565b73ffffffffffffffffffffffffffffffffffffffff166107f1610879565b73ffffffffffffffffffffffffffffffffffffffff1614610847576040517f08c379a000000000000000000000000000000000000000000000000000000000815260040161083e9061167c565b60405180910390fd5b61085160006110da565b565b600960009054906101000a900473ffffffffffffffffffffffffffffffffffffffff1681565b60008060009054906101000a900473ffffffffffffffffffffffffffffffffffffffff16905090565b600360009054906101000a900473ffffffffffffffffffffffffffffffffffffffff1673ffffffffffffffffffffffffffffffffffffffff166340c10f1933836040518363ffffffff1660e01b81526004016108ff9291906115e3565b600060405180830381600087803b15801561091957600080fd5b505af115801561092d573d6000803e3d6000fd5b505050507f9c661b4e8201e6370fb7b0a5e53a653852cf6ceaa3e973b39e871f4344ea5c8d8133604051610962929190611647565b60405180910390a150565b600960009054906101000a900473ffffffffffffffffffffffffffffffffffffffff1673ffffffffffffffffffffffffffffffffffffffff1663d0e30db0346040518263ffffffff1660e01b81526004016000604051808303818588803b1580156109d757600080fd5b505af11580156109eb573d6000803e3d6000fd5b5050505050565b600960009054906101000a900473ffffffffffffffffffffffffffffffffffffffff1673ffffffffffffffffffffffffffffffffffffffff1663d0e30db0346040518263ffffffff1660e01b81526004016000604051808303818588803b158015610a5c57600080fd5b505af1158015610a70573d6000803e3d6000fd5b505050505060006040518060c00160405280600754815260200160006001811115610ac4577f4e487b7100000000000000000000000000000000000000000000000000000000600052602160045260246000fd5b8152602001600560009054906101000a900473ffffffffffffffffffffffffffffffffffffffff1673ffffffffffffffffffffffffffffffffffffffff168152602001600660009054906101000a900473ffffffffffffffffffffffffffffffffffffffff1673ffffffffffffffffffffffffffffffffffffffff1681526020013481526020016040518060400160405280600481526020017f30783030000000000000000000000000000000000000000000000000000000008152508152509050600060405180608001604052803073ffffffffffffffffffffffffffffffffffffffff1681526020016000151581526020013073ffffffffffffffffffffffffffffffffffffffff1681526020016000151581525090506000610be8346110ac565b9050600960009054906101000a900473ffffffffffffffffffffffffffffffffffffffff1673ffffffffffffffffffffffffffffffffffffffff1663095ea7b3600160009054906101000a900473ffffffffffffffffffffffffffffffffffffffff16346040518363ffffffff1660e01b8152600401610c699291906115e3565b602060405180830381600087803b158015610c8357600080fd5b505af1158015610c97573d6000803e3d6000fd5b505050506040513d601f19601f82011682018060405250810190610cbb9190611271565b506000600160009054906101000a900473ffffffffffffffffffffffffffffffffffffffff1673ffffffffffffffffffffffffffffffffffffffff166352bbbe29858585896040518563ffffffff1660e01b8152600401610d1f949392919061169c565b602060405180830381600087803b158015610d3957600080fd5b505af1158015610d4d573d6000803e3d6000fd5b505050506040513d601f19601f82011682018060405250810190610d719190611326565b90508060086000828254610d859190611759565b925050819055506000610db7612710610da96008548561119e90919063ffffffff16565b6111b490919063ffffffff16565b90506000610e7a610e7283600360009054906101000a900473ffffffffffffffffffffffffffffffffffffffff1673ffffffffffffffffffffffffffffffffffffffff166318160ddd6040518163ffffffff1660e01b8152600401602060405180830381600087803b158015610e2c57600080fd5b505af1158015610e40573d6000803e3d6000fd5b505050506040513d601f19601f82011682018060405250810190610e649190611326565b6111b490919063ffffffff16565b61271061119e565b9050600360009054906101000a900473ffffffffffffffffffffffffffffffffffffffff1673ffffffffffffffffffffffffffffffffffffffff166340c10f1933836040518363ffffffff1660e01b8152600401610ed99291906115e3565b600060405180830381600087803b158015610ef357600080fd5b505af1158015610f07573d6000803e3d6000fd5b5050505050505050505050565b600960009054906101000a900473ffffffffffffffffffffffffffffffffffffffff1673ffffffffffffffffffffffffffffffffffffffff16632e1a7d4d826040518263ffffffff1660e01b8152600401610f6f91906116e8565b600060405180830381600087803b158015610f8957600080fd5b505af1158015610f9d573d6000803e3d6000fd5b5050505050565b600047905090565b610fb46110a4565b73ffffffffffffffffffffffffffffffffffffffff16610fd2610879565b73ffffffffffffffffffffffffffffffffffffffff1614611028576040517f08c379a000000000000000000000000000000000000000000000000000000000815260040161101f9061167c565b60405180910390fd5b600073ffffffffffffffffffffffffffffffffffffffff168173ffffffffffffffffffffffffffffffffffffffff161415611098576040517f08c379a000000000000000000000000000000000000000000000000000000000815260040161108f90611627565b60405180910390fd5b6110a1816110da565b50565b600033905090565b60006127106064836110be91906117e0565b6110c891906117af565b826110d3919061183a565b9050919050565b60008060009054906101000a900473ffffffffffffffffffffffffffffffffffffffff169050816000806101000a81548173ffffffffffffffffffffffffffffffffffffffff021916908373ffffffffffffffffffffffffffffffffffffffff1602179055508173ffffffffffffffffffffffffffffffffffffffff168173ffffffffffffffffffffffffffffffffffffffff167f8be0079c531659141344cd1fd0a4f28419497f9722a3daafe3b4186f6b6457e060405160405180910390a35050565b600081836111ac91906117af565b905092915050565b600081836111c291906117e0565b905092915050565b6000813590506111d981611a36565b92915050565b6000815190506111ee81611a4d565b92915050565b60008135905061120381611a64565b92915050565b60008135905061121881611a7b565b92915050565b60008135905061122d81611a92565b92915050565b60008151905061124281611a92565b92915050565b60006020828403121561125a57600080fd5b6000611268848285016111ca565b91505092915050565b60006020828403121561128357600080fd5b6000611291848285016111df565b91505092915050565b600080600080608085870312156112b057600080fd5b60006112be87828801611209565b94505060206112cf878288016111ca565b93505060406112e0878288016111f4565b92505060606112f18782880161121e565b91505092959194509250565b60006020828403121561130f57600080fd5b600061131d8482850161121e565b91505092915050565b60006020828403121561133857600080fd5b600061134684828501611233565b91505092915050565b61135881611880565b82525050565b6113678161186e565b82525050565b6113768161186e565b82525050565b61138581611892565b82525050565b6113948161189e565b82525050565b60006113a58261172c565b6113af8185611737565b93506113bf818560208601611951565b6113c881611a11565b840191505092915050565b6113dc816118f7565b82525050565b6113eb8161191b565b82525050565b6113fa8161193f565b82525050565b600061140d602683611748565b91507f4f776e61626c653a206e6577206f776e657220697320746865207a65726f206160008301527f64647265737300000000000000000000000000000000000000000000000000006020830152604082019050919050565b7f696b6f6f6f737300000000000000000000000000000000000000000000000000815250565b6000611499602083611748565b91507f4f776e61626c653a2063616c6c6572206973206e6f7420746865206f776e65726000830152602082019050919050565b6080820160008201516114e2600085018261135e565b5060208201516114f5602085018261137c565b506040820151611508604085018261134f565b50606082015161151b606085018261137c565b50505050565b600060c083016000830151611539600086018261138b565b50602083015161154c60208601826113f1565b50604083015161155f60408601826113d3565b50606083015161157260608601826113d3565b50608083015161158560808601826115aa565b5060a083015184820360a086015261159d828261139a565b9150508091505092915050565b6115b3816118ed565b82525050565b6115c2816118ed565b82525050565b60006020820190506115dd600083018461136d565b92915050565b60006040820190506115f8600083018561136d565b61160560208301846115b9565b9392505050565b600060208201905061162160008301846113e2565b92915050565b6000602082019050818103600083015261164081611400565b9050919050565b600060608201905061165b60008301611466565b61166860208301856115b9565b611675604083018461136d565b9392505050565b600060208201905081810360008301526116958161148c565b9050919050565b600060e08201905081810360008301526116b68187611521565b90506116c560208301866114cc565b6116d260a08301856115b9565b6116df60c08301846115b9565b95945050505050565b60006020820190506116fd60008301846115b9565b92915050565b600060408201905061171860008301856115b9565b611725602083018461136d565b9392505050565b600081519050919050565b600082825260208201905092915050565b600082825260208201905092915050565b6000611764826118ed565b915061176f836118ed565b9250827fffffffffffffffffffffffffffffffffffffffffffffffffffffffffffffffff038211156117a4576117a3611984565b5b828201905092915050565b60006117ba826118ed565b91506117c5836118ed565b9250826117d5576117d46119b3565b5b828204905092915050565b60006117eb826118ed565b91506117f6836118ed565b9250817fffffffffffffffffffffffffffffffffffffffffffffffffffffffffffffffff048311821515161561182f5761182e611984565b5b828202905092915050565b6000611845826118ed565b9150611850836118ed565b92508282101561186357611862611984565b5b828203905092915050565b6000611879826118cd565b9050919050565b600061188b826118cd565b9050919050565b60008115159050919050565b6000819050919050565b60006118b38261186e565b9050919050565b60008190506118c882611a22565b919050565b600073ffffffffffffffffffffffffffffffffffffffff82169050919050565b6000819050919050565b600061190282611909565b9050919050565b6000611914826118cd565b9050919050565b60006119268261192d565b9050919050565b6000611938826118cd565b9050919050565b600061194a826118ba565b9050919050565b60005b8381101561196f578082015181840152602081019050611954565b8381111561197e576000848401525b50505050565b7f4e487b7100000000000000000000000000000000000000000000000000000000600052601160045260246000fd5b7f4e487b7100000000000000000000000000000000000000000000000000000000600052601260045260246000fd5b7f4e487b7100000000000000000000000000000000000000000000000000000000600052602160045260246000fd5b6000601f19601f8301169050919050565b60028110611a3357611a326119e2565b5b50565b611a3f8161186e565b8114611a4a57600080fd5b50565b611a5681611892565b8114611a6157600080fd5b50565b611a6d8161189e565b8114611a7857600080fd5b50565b611a84816118a8565b8114611a8f57600080fd5b50565b611a9b816118ed565b8114611aa657600080fd5b5056fea2646970667358221220b11e4d4dc16a92b43623d0fdd0a23b6f6d24802854462728c0ca9ee131043bff64736f6c63430008000033",
  "linkReferences": {},
  "deployedLinkReferences": {}
}